:020000041000EA
:1000000000B5324B212058609868022188439860DF
:10001000D860186158612E4B002199600421596104
:100020000121F02299502B49196001219960352056
:1000300000F044F80222904214D00621196600F024
:1000400034F8196E01211966002018661A6600F04E
:100050002CF8196E196E196E052000F02FF8012189
:100060000842F9D1002199601B49196000215960AB
:100070001A491B48016001219960EB211966A021F2
:10008000196600F012F800219960164914480160C1
:100090000121996001BC002800D000471248134993
:1000A000086003C880F30888084703B5996A0420EC
:1000B0000142FBD001200142F8D103BD02B5186610
:1000C0001866FFF7F2FF186E186E02BD00000240BE
:1000D000000000180000070000035F00212200005C
:1000E000F4000018222000A00001001008ED00E03C
:1000F000000000000000000000000000070B8FD58A
:1001000000040420C502001083590010C70200102B
:10011000C7020010C7020010C7020010C70200107B
:10012000C7020010C7020010C7020010C70200106B
:10013000C7020010C7020010C7020010C70200105B
:10014000797600109D760010C1760010E9760010D7
:10015000C702001065780010C70200108D9A0010C9
:10016000C7020010C7020010C7020010117600106D
:1001700045760010C7020010C7020010E1590010B8
:10018000015A0010C7020010C7020010C702001079
:10019000C7020010C7020010C7020010C7020010FB
:1001A00011770010C7020010C7020010C70200102C
:1001B000C7020010C7020010C7020010C7020010DB
:1001C00072B62C4880F308882B4880F309880220F7
:1001D00080F31488BFF36F8F28482949086002F024
:1001E00005F803F027FF27482749224A914202DAFF
:1001F00008600431FAE725491F4A914202DA086093
:100200000431FAE72249234A234B14469A4204DA7E
:100210000868106004310432F8E719490C601F497E
:100220001F4A204B9A4204DA0868106004310432F5
:10023000F8E700201C491D4A914202DA08600431A7
:10024000FAE703F0F9FE03F03DFF194C194DAC42FB
:1002500003DA216888470434F9E705F029FF164CD2
:10026000164DAC4203DA216888470434F9E7144993
:100270000847000000040420000C042000010010C6
:1002800008ED00E0555555550000042000040420F9
:100290000001001000010010C001001014CE001079
:1002A00000000020100A0020100A0020F02C00207E
:1002B000C0010010C0010010C0010010C0010010FA
:1002C000374000107CE700F000F8FEE7F0B5444648
:1002D0004D4656465F46F0B46B46CB60C3689D46BC
:1002E000F0BCA046A946B246BB46F0BD05F0A6FB51
:1002F00062B6281CA047002004F07CFAFEE703F059
:100300005BFF024A024B1360FEE7C04604ED00E0CB
:10031000000000807047C046844608006146FFE741
:100320001FB50AF039FB002801D40021C8421FBDC7
:1003300010B50AF0B9FA4042013010BD10B50AF00C
:100340002BFB002801DB002010BD012010BDC046A2
:1003500010B50AF021FB002801DD002010BD0120AE
:1003600010BDC04610B50AF0C7FA002801DC002015
:1003700010BD012010BDC04610B50AF0BDFA00281E
:1003800001DA002010BD012010BDC0461C21012350
:100390001B04984201D3000C10391B0A984201D368
:1003A000000A08391B09984201D30009043902A246
:1003B000105C40187047C0460403020201010101AD
:1003C000000000000000000002B471464908490026
:1003D000095649008E4402BC7047C04602B47146BB
:1003E00049084900095C49008E4402BC7047C04678
:1003F00003B47146490840004900095A49008E4437
:1004000003BC7047414208401C2101231B04984251
:1004100001D3000C10391B0A984201D3000A083995
:100420001B09984201D30009043902A2105C401A4A
:100430007047C0461B1C1D1D1E1E1E1E1F1F1F1F9A
:100440001F1F1F1F0023C25C0133002AFBD1581E4F
:100450007047000003B47146490840004900095E36
:1004600049008E4403BC70470300000901D003001B
:1004700004209A0802D013000230C0B25B0801D0F9
:100480000130C0B27047000001218140024B1A7850
:100490000A431A707047C046F424002001218140AD
:1004A000024B1A788A431A707047C046F424002021
:1004B000032370B50126CC086343D2180723350007
:1004C00019408D400021EDB20300CB40545C334015
:1004D0005B4263402B405C40545401310329F3D10B
:1004E00070BD30B50724032300220440C0084343F5
:1004F00001251000C9188B5CE3402B40934001326A
:100500001843C0B2032AF6D130BD0000021C030418
:1005100013B51B0E0800D1B2072B08D8062905D841
:1005200007246343054A5918FFF7C2FF13BD04337C
:10053000DBB2012BFAD8024AF6E7C046C3240020FA
:10054000C0240020030407B51B0EC2B2072B09D834
:100550000020062A05D80730584306498018FFF7BF
:10056000C0FF0EBD0433DBB20020012BF9D8100010
:100570000149F4E7C3240020C0240020012370B502
:100580001E00864030001E008E40074D31002C7842
:10059000934022000143C8B29A432140884201D1CE
:1005A0001C43E2B22A7070BDF42400200721054BE1
:1005B000054A1B7812789A4200D1704701330B40EC
:1005C000F9E7C046FA240020F924002070B50B4C4E
:1005D00023781A008243100022700500072215407C
:1005E000104209D1984207D0054B5B785B0703D5D1
:1005F000C008FFF753FF257070BDC046F5240020EA
:10060000F624002070B5134A134B144D10781B7854
:100610002C781843002C19D0114B1B78002B16D0C6
:10062000104B1B787F2B12D91D230F4A00211678FF
:10063000002E01D00131C9B2013BDBB20132FF2BE8
:10064000F5D1002901D000232B70204370BD052374
:10065000064AEBE7F0240020F8240020F1240020D3
:1006600098090020F6240020720B0020920B002035
:10067000024A1378834313707047C046F024002069
:10068000030010B5E72808D8DF2808D8312861D042
:100690000ED8292855D02A2862D0180010BDE0387D
:1006A0000728FAD8FFF790FE18F9252A38F93F44B1
:1006B000392808D0822806D03528EED12F4A127862
:1006C0009206EAD506E02D4A1178890750D1527872
:1006D0001207E2D52923E0E70121284802780A42DF
:1006E00036D140780842D8D0E323D206D5D50023AE
:1006F000D3E7224A12785107F6D4CEE71F490A7889
:10070000500733D44978C90732D410210A405142E6
:100710004A4152421340C0E7184A51788907BCD574
:100720001278E723E1E7154A12781107F9D4B4E704
:1007300012490A7810071DD449788907E5D5E423C2
:10074000ABE70E4A1178890616D452781207A4D561
:100750003923A2E7094A127852069ED52A239CE73C
:10076000064A1278520698D5312396E7E22394E799
:10077000E02392E7E62390E735238EE7F624002076
:1007800030B5244C21784B070DD514220240043A91
:1007900053425A4118230340083B5D426B419A4241
:1007A00001D00C2358400B070DD514220240143AF7
:1007B00053425A4118230340183B5D426B419A4211
:1007C00001D00C2358406478E3070DD51122024074
:1007D000013A53425A4118230340083B5D426B41A2
:1007E0009A4201D009235840A4070DD51122024096
:1007F000113A53425A4118230340183B5C4263416B
:100800009A4201D009235840C90601D518239843BC
:1008100030BDC046F624002070B5FFF731FFA42399
:100820000400DB01984246D2A023DB01984200D3AA
:100830009EE0DF2815D8CC283AD8A7280AD8A428C3
:1008400000D970E0012803D0031F9BB2A02B06D86B
:10085000201C70BD0300A83B9BB21A2B67D9002453
:10086000F6E78023DB0198421AD28026B601B04217
:1008700000D38BE0E728EBD9431EFF3B013EFF3E50
:100880009BB2B342EBD2000AC0B2FFF779FF05007A
:10089000E0B2FFF7F5FE2D023540284384B2D7E7DA
:1008A000C0B2FFF7EDFEF0231B0123403F4C034392
:1008B0001C43A4B2CCE7A523DB0198421CD23C4BDD
:1008C000984242D83B4B984209D90321012201406A
:1008D0008A40C3065B0F5B01374C1343E8E7374B95
:1008E00098422DD80322C4B2A3081440023AA24071
:1008F0005B01334C1343DBE7324B984208D81F208F
:10090000314B20409C422AD8304C000204439FE7E0
:100910002F4BC3189BB21F2BA1D8F82304025B01F5
:100920001C402C4B0AE08023243CDB01C0E75834F8
:10093000294BE4B26400E35A8824E4011C4387E7AE
:100940001F230340254C1B02F8E70321012201402D
:100950008A40C3065B0F5B01214C1343A8E7FFF7F6
:100960000FFFF823802400025B011840A401CDE7AB
:100970001F202040FFF704FFE3051B0F1B02C206E8
:1009800000D5000100B2174C034391E7C004C00E2C
:10099000FFF7F6FE0500E0B2FFF772FEF8232D0226
:1009A0005B011D4005432E43B4B251E700A0FFFF99
:1009B0005F5200003F520000008CFFFF1F520000FA
:1009C000008DFFFFBF5200009F520000F4A0000006
:1009D00040ADFFFFF0A00000D8C40010F1A000005F
:1009E000008AFFFF0090FFFF002070470020704743
:1009F00030BFFDE710B55200054C1218091A035B11
:100A0000DB430B5202309042F9D1012010BDC046A9
:100A100000E01F1010B50B00041E02D1C80FC0016A
:100A200010BDC11742184A4012B29918002B0CDBB6
:100A30009B1A58010AF0A4FF20231B1A5BB2D8B2FC
:100A4000002CEDDA4042C0B2EAE74801D11A0AF0C0
:100A500097FF6023F1E700001FB5030A01901C31E6
:100A6000D8B2114B4900C95CE4234B431B121C3321
:100A70009A1AD317D2185A40D200821A01AC131C0A
:100A8000120400D500231BB2584300126070228864
:100A9000FF231000A178120A184012020B401B0419
:100AA0001043184304B010BD00C40010030C84B000
:100AB00001901C31D8B2104B4900C95CE4234B4370
:100AC0001B121C339A1AD317D2185A40D200821A1A
:100AD000131C120400D5002301AA12881BB2FF21A7
:100AE000434310001B12120A084012020B401B0461
:100AF0001043184304B0704700C400107FB5040AC7
:100B00000190E4B21000E51AFFF784FF8300C01AD9
:100B1000EDB22D18EDB26C4301AE24127470328820
:100B2000FF231000B178120A184012020B401B0478
:100B30001043184304B070BD7FB5040C051CE4B22B
:100B40001000E61AFFF766FF8300C01AFF23F6B213
:100B500036181800F6B2744328402D0A1D40240AA6
:100B60002D021C40034B284324041840204304B0AA
:100B700070BDC046FFFF00FF7FB5060A0190100060
:100B800008AA1278F6B29C1AFFF744FF3419E4B2AF
:100B9000201AC0B2704301AD04126C702A88FF2382
:100BA0001000A978120A184012020B401B041043CF
:100BB000184304B070BD00007FB5061C040C100083
:100BC00008AA1578E4B25D1BFFF724FFFF2365191F
:100BD000EDB22D1A1800EDB26C433040360A1E40BB
:100BE000240A36021C40034B30432404184020439F
:100BF00004B070BDFFFF00FF84B001AB01901A701C
:100C00001A8899781000FF23120A184012020B402C
:100C10001B041043184304B07047000084B00190D7
:100C20001C3109484900095C01AB891A19701A88FE
:100C300099781000FF23120A184012020B401B047F
:100C40001043184304B0704700C400101FB50B4B8D
:100C50001C3149005B185B7801AC9B1A0190237032
:100C60002288FF231000A178120A184012020B40BC
:100C70001B041043184304B010BDC04600C400104C
:100C8000F0B51C311500114A4B00D3185F7885B0C0
:100C90003E00203E019001ACC0B273B2360602D5D0
:100CA0002023DB1B5BB24900525CA178521BD21897
:100CB000801820702288FF231000120A18401202A8
:100CC0000B401B041043184305B0F0BD00C40010D6
:100CD00084B004AA0190107803225A43521001A94B
:100CE000801808700A88FF2310008978120A1840BB
:100CF00012020B401B041043184304B0704730B578
:100D000085B0019010001D00FFF784FE01AC401972
:100D100020702288FF231000A178120A18401202C6
:100D20000B401B041043184305B030BD30B585B0EF
:100D30000190100008AA147801AD1C1BFFF76AFE91
:100D4000E4B2241A2C702A88FF231000A978120A12
:100D5000184012020B401B041043184305B030BD6D
:100D60007FB5104D1C335B00EE185B5D7678703BF1
:100D700059437F23203E72435118CA171A40521814
:100D8000D21101AC1218019022702288A1781000B3
:100D90008033120A184012020B401B041043184300
:100DA00004B070BD00C400107FB5104D1C335B0053
:100DB000EE185B5D7678703B59433F23203E7243CB
:100DC0005118CA171A405218921101AC121801900A
:100DD00022702288A1781000C033120A1840120233
:100DE0000B401B041043184304B070BD00C4001036
:100DF0007FB5164D1C335B00EE1876780190203ECF
:100E000072435E5D01AC3500703DC0B26BB22D0621
:100E100002D570239B1B5BB23825EB1A5943032381
:100E20008A187F215343DA170A40D218D21180184A
:100E300020702288FF231000A178120A18401202A5
:100E40000B401B041043184304B070BD00C40010D5
:100E500030B5104B1C314900CD5C85B0A91A01900A
:100E600001ACC0B24BB2090601D5521B53B2DAB283
:100E7000182353431B12C01820702288FF23100030
:100E8000A178120A184012020B401B0410431843A9
:100E900005B030BD00C40010C943030CC9B2DBB2B9
:100EA0004B43FF210A000240000A084000021043A1
:100EB0001B0A044A0B401B04104084B0184304B0C2
:100EC0007047C046FFFF00FFCAB2822184B0891A72
:100ED000019001AB081C002900DA00201A789978EB
:100EE00012181A701A88FF231000120A18401202F2
:100EF0000B401B041043184304B070471FB501900A
:100F00000520434306AA128801A9D3181A1C9BB2D4
:100F1000FF2B00D9FF22D3438A78DBB29B181C1C1D
:100F2000FF2B00D9FF240A88FF231000120A184063
:100F3000120223401B041043184304B010BD30B507
:100F400085B0019008A800881B18C81709184140EF
:100F5000D0171218424009B29BB292B20901FF2980
:100F600000DDFF2112B21201FF2A00DDFF22081C62
:100F700015B209B201ACA94200DD101C1B181A1CE5
:100F80009BB2FF2B00D9FF22D343A278DBB29B1880
:100F9000191CFF2B00D9FF212288FF231000120A01
:100FA000184012020B401B041043184305B030BD1B
:100FB0007FB5050C160008AA01901288E8B201ACB2
:100FC000FF25482B06D8D31A1A1C9BB2AB4200D976
:100FD0002A1C95B2083189B2102905D9330008338B
:100FE0009BB2102B00D9FF250321ED430C4BF217C8
:100FF0000A405B7892199210EDB2D2184019227013
:10100000011CFF2800D9FF212288FF231000120AAB
:10101000184012020B401B041043184304B070BD6B
:10102000E824002084B004AA12880190D21A131C6C
:1010300092B2FF2A00D9FF23DBB2D94301AA9078EC
:10104000C9B24018011CFF2800D9FF2110781B18D5
:1010500013701288FF231000120A184012020B406E
:101060001B041043184304B070471FB506AA12882A
:1010700001A9D31A1A1C9BB20190FF2B00D9FF22A1
:10108000D3438A78DBB29B181C1CFF2B00D9FF24AA
:101090000A88FF231000120A1840120223401B0482
:1010A0001043184304B010BD024B1A781043187057
:1010B0007047C04676200020074B10B51870074BCC
:1010C000074A1B789B079B0F137006F087FE0322CD
:1010D000044B1A7010BDC04638070020E8240020D9
:1010E000370700209A090020020008000C4910B5BB
:1010F0000B789B0712D00123002A04D02B339A428D
:1011000001D81333134003240A789B002240134371
:1011100000220B70034B1A70FFF7C6FF10BDC046CC
:10112000E82400209A090020054B10B518788008A3
:1011300001302C2800D901200121FFF7D5FF10BD77
:10114000E8240020064B10B5187880080138C0B29A
:10115000002800D12C300121FFF7C6FF10BDC0468A
:10116000E824002070B5064C0500180023789B0782
:1011700004D06570A170E270FFF796FF70BDC046A5
:10118000E824002010B5044B5878DA7899780830B4
:101190000123FFF7E7FF10BDE824002010B5054B41
:1011A0005878DA780838997880B20123FFF7DAFFA7
:1011B00010BDC046E824002010B507488378C278E7
:1011C0001033191CFF2B00D9FF2101234078C9B22D
:1011D000FFF7C8FF10BDC046E824002010B507483F
:1011E0008378C278103B191C002B00DA0021012300
:1011F0004078C9B2FFF7B6FF10BDC046E824002012
:1012000010B50748C37810331A1CFF2B00D9FF22F2
:10121000817801234078D2B2FFF7A4FF10BDC04609
:10122000E824002010B50748C378103B1A1C002B97
:1012300000DA0022817801234078D2B2FFF792FFD2
:1012400010BDC046E824002010B5064A13791033BB
:10125000191CFF2B00D9FF2101201171FFF724FF7A
:1012600010BDC046E824002010B5064A1379103B93
:10127000191C002B00DA002101201171FFF714FF67
:1012800010BDC046E82400200022014B1A707047B0
:10129000430D0020F0B5104C6478002C19D11628AD
:1012A00019DD1738032444430C4D2E1977788F42EB
:1012B00005D1645D944202D1B4789C420BD00126E2
:1012C000074C2670032460432C1861702A54A370C5
:1012D00001E01628E6DDF0BD88240020B90C0020CE
:1012E000430D002010B5002801D0904710BD88475D
:1012F000FCE7B523434398B2002B07DA803B1BB2CF
:10130000D817C0B2C018001240B270478030000435
:101310000016FAE710B50D4B14201B78DA0712D42B
:1013200000189A070FD428305B070CD4084B4838B4
:101330001B78002B07D048301D2B04D81E215843A2
:101340000AF01EFB80B2C0B210BDC046D8240020F7
:10135000DA24002010B50124104B02211B7823420F
:1013600015D104220B4210D1134214D10C4B187822
:1013700000280ED027280ED8C00026310AF000FB26
:1013800002002000002A01D092B2D0B210BD0A00A3
:10139000FBE72200F9E70822F7E7C046D82400203F
:1013A000D924002010B52B4C0300E178A2780A4321
:1013B00061790A4321790A4305D00821264A117030
:1013C000264A07391170CD2B04D1FFF7A3FF404205
:1013D000E07010BD1800CE381128FAD8FEF7FEFFD5
:1013E000090C11242424242424242414181C212C22
:1013F0003236FFF78FFFEBE7FFF78CFF4042A0701C
:10140000E7E7FFF787FFFAE7FFF7A4FF2071E0E7C0
:10141000FFF7A0FF4042F9E7FFF79CFF40426071F1
:10142000D7E7FFF797FFFAE7D13B1A000123934074
:10143000627813436370CCE70123094A11780B43A8
:101440001370C6E7064A02231178F8E7044A04231A
:101450001178F4E7DB240020DA240020D9240020CE
:10146000D824002030B50421052202240325334B63
:1014700059569A561C575D57CD2814D1002D01DAC4
:101480000022DA70D9789A780A4351B2002A01D141
:101490002B4A11701A795B7913435AB2002B01D190
:1014A000284B1A7030BDCE2802D1002DE8DCE9E7C8
:1014B000CF2804D1002CE5DA00229A70E2E7D02888
:1014C00002D1002CF8DCDDE7D92804D10029D9DDD0
:1014D00000221A71D6E7DA2802D10029D2DAF7E71A
:1014E000DB2804D1002ACDDA00225A71CAE7DC28B1
:1014F00002D1002AF8DCC5E7D1380E28C2D8FEF7A1
:1015000063FF0808080808080808C1C1C1C10E1413
:101510001800012181405A788A435A70B2E70120AD
:1015200009490A7882430A70ACE7074902200A7821
:10153000F8E7054904200A78F4E7C046DB240020D8
:10154000DA240020D9240020D8240020054B10B52F
:101550001B78181E05D0044B1B68181E01D01B6891
:10156000984710BD88240020B424002007B50A4AFB
:101570000300118881420DD01080084A1268002AA9
:1015800008D0032101A8017069464B711B0A8B71B9
:101590001369984707BDC046BE0B0020B424002045
:1015A00007B50A4A0300118881420DD01080084A0D
:1015B0001268002A08D0042101A8017069464B7105
:1015C0001B0A8B711369984707BDC046BC0B0020EE
:1015D000B424002070B5164B1B78002B10D0154B8F
:1015E0001B787F2B0CD9C308EF2808D8124A072193
:1015F000D218012301408B4091780B43937070BD4A
:101600000E49012200230C0052428D78A842F6D0E8
:10161000561C02D1002D00D11A000133DDB2013178
:101620005BB2062DF1D1531CE9D0A418A070E6E7F7
:1016300098090020F6240020700B0020900B002059
:1016400010B5114B1B78002B10D0104B1B787F2B43
:101650000CD9C208EF2808D80D4B01219B1807228E
:10166000024091409A788A439A7010BD0023190075
:10167000084A9478844200D191700133DBB2013280
:10168000062BF6D1F1E7C04698090020F624002089
:10169000700B0020900B0020BFF34F8F034B044AC8
:1016A000DA60BFF34F8FC046FDE7C04600ED00E0B3
:1016B0000400FA05002370B51F4CD4306360C17874
:1016C000427985780679090212020D433243090AEC
:1016D000032915D008D801290DD01800022908D1F6
:1016E000164B63605B2309E01800212915D02229DD
:1016F0001AD0236070BD124B636012232000F8E7FC
:10170000EDB21800022DF4D80E4BA900C8580E4BAC
:101710005B5D60600028F1D1EBE7022AE9D80B4B52
:101720009200D0580923F4E7022AE2D8084B91002E
:10173000C858084B9B5CECE7B40B0020C4BD0010FC
:101740001FBE001050BE00104CBE001040BE001066
:1017500034BE001031BE00107047000010B5D43008
:10176000C379084984791B020A782343022B07D1E5
:10177000012A01D0062A02D1034B4A781A7010BD03
:10178000014BFBE7B00B0020AF0B0020014B18789A
:101790007047C046AF0B00207047C368C269013B69
:1017A000C360436910B59B1882694361934201D3BA
:1017B000436A436100238362036B002B00D0984788
:1017C00010BD4269036910B5934204D10023C46877
:1017D00018009C4201D1100008C80B6010BD0369BD
:1017E00010B51960C268013AC260C2699B1882696B
:1017F0000361934201D3436A036100238362036B55
:10180000002B00D0984710BD0300020010B5D6335E
:101810001B78DE3213707F221340064A04001360E7
:1018200043681B68002B01D00121984703232370D4
:1018300010BDC04600001150C0224368D20510B54B
:10184000D968DA608368054A0133DB009C58002CB4
:1018500002D0D2185068A04710BDC046B00E00207C
:101860007F220138C31713401B18DB110133DB0142
:1018700002329BB2FF3210B593420ED0FF24802279
:101880000749D200240259181000214204D0181C24
:10189000934200D9101C80B210BD80208000FBE76D
:1018A00080FDFFFF70B500292FD11D4BDC6C01229C
:1018B0008B1C9B00C0184668B069037D82745A4037
:1018C00002750568728AAA4200D92A005E1EB341D9
:1018D0008026F6001643B6B240685B033343114ED0
:1018E00012183340954202D88022D20113430E4A87
:1018F000144080229205144300290BD1084AD46475
:101900000A4AC90089184B6070BD094ACB009B1870
:101910005C68CCE70648CA0012185460F0E7C0467D
:1019200000001150FF7FFFFFFFFFFFAF800010504E
:101930000000105070B51D4B1B78002B1ED01C4BA7
:101940001B787F2B1AD9FEF75DFE1A4C1A4D60707A
:101950002022290020000AF005F800280DD02022BE
:101960002100280009F066F8144B1B68002B04D0F6
:1019700006229B6822702000984770BDFEF742FE49
:101980000F4C104D207008222900200009F0EAFFBA
:101990000028F2D008222100280009F04BF8074B5C
:1019A0001B68002BE9D05B68E5E7C046980900207A
:1019B000F6240020700B002092240020B424002084
:1019C000900B0020B824002010B5034807F054FC09
:1019D0000022024B1A7010BDE8240020762000205F
:1019E000352310B5064C03220649601C237009F00C
:1019F00021F881235B42A380FFF7E6FF10BDC046BC
:101A0000E824002000BA0010F7B5170001220231C7
:101A10008900401843685C692275216822691B8A25
:101A20008E1A9E4200D91E000023180092198A4285
:101A30005841226182030092A17DB5B20A00501E76
:101A400082415203019201224A40A069A2759F423D
:101A500000D0A38BC0183200A16808F0EBFF8420EF
:101A6000A36800029B19A360019B28431843009BB5
:101A70001843002F00D00004FEBD0000F7B58B1CFA
:101A80009B00C3185B680C1E5F691A4E019023D13E
:101A9000194BDB6C0022210001980093FFF7B4FF83
:101AA0003A683B6905009A4205D00122210001985D
:101AB000FFF7AAFF05436B0111D5104A009B1340A5
:101AC0001A00A023DB051343002C0FD10A4AD3646C
:101AD0001034E4003551F7BDCB00F358DAE7084A7B
:101AE000009B13401A0080239B05ECE7E200B350F3
:101AF000EEE7C0460000105000001150FFFFFFDF6E
:101B0000FFFFFFAF70B501258D4004892C43048190
:101B10008C1CA40004196468646923600023A2601B
:101B20006360E3602361FFF7A9FF70BD37B5406BC9
:101B3000C36F1C682278042A13D1027A022A10D1BA
:101B40001D790123AB40228913420AD1443001A9F7
:101B5000FFF737FE021E04D029002000019BFFF78B
:101B6000D1FF37BDF8B51E0006AB04001D88002A62
:101B70000ED00C2007006743134BFF5C974200D246
:101B80003A0060431B185888104BC01808F052FFE9
:101B9000200007F0A5FE071E13D0002D11D00C2148
:101BA0000A006243084B9A1810792A00A84200D212
:101BB000020061435B18D988044B3000C91808F053
:101BC00039FF3800F8BDC0463809002060240020E5
:101BD00030B50F24012385B06C4423700B4B0C4DA2
:101BE0001B78092B0BD900232B7000230122210025
:101BF00007200093FFF7B6FF2070287002E02B78D3
:101C0000002BF2D0207805B030BDC046372400202C
:101C10003824002010B5084B1B78002B09D0074B47
:101C20001B787F2B05D91E220548002109F0DDFD18
:101C300010BD06220348F8E798090020F62400208A
:101C4000720B0020920B002007B500236A46D37167
:101C50006B460122D91D07F0EDFA6B46D8790EBD0F
:101C6000030070B50020052B16D8072914D8062AC2
:101C700012D80E244C435200A41870225343E41887
:101C800020002930FFF7E0FF050220002A30FFF78F
:101C9000DBFFADB2284380B270BD0000030070B519
:101CA0000020052B13D8032911D889001B015B18CC
:101CB0000B495D1882420BD02800FFF7C5FF0402D4
:101CC0000120A4B22818FFF7BFFF204380B270BDE7
:101CD000044A9818FFF7B8FF0402A4B20320F1E702
:101CE000C9020000CB0200000B0407B51B0E002246
:101CF000C9B2072B09D8062917D8052815D80A0014
:101D00001900FFF7ADFF02000FE0FD2B07D10329FB
:101D10000BD8052809D80132FFF7C0FFF3E7FC2BE9
:101D200003D1032901D80528F6D910000EBD000003
:101D3000F0B505240127104A104B12781B7885B0A6
:101D400001AE1A4330800092009B23413B4205D1F3
:101D5000013CF9D20025280005B0F0BD328803AB64
:101D60001A80E5B203992800FFF7BEFFFEF754FD85
:101D700080B20128ECD0EEE7F4240020F324002008
:101D800013B54379008801AA10800198002B0DD06B
:101D900000290BD0FFF7CCFF040001000198FEF7EB
:101DA000B5FB20000199FFF79FFF16BDFEF7CAFBA8
:101DB0000400F6E71FB501AC20800198FFF7B8FFDB
:101DC000228803AB1A800399FFF78EFFFEF724FDEC
:101DD00004B010BD10B500240379A34217D00088C9
:101DE000FFF7E8FFC2B20004030F062B18D00F2143
:101DF000062B0ED80E330B40012B08D80124F02AF5
:101E000005D008D80024E72393426441E4B22000BF
:101E100010BD0633EFE7F43A53425A41D4B2F6E725
:101E20000124E72AF3D9F13AF6E710B52520FFF7A8
:101E30000BFF242801D0002010BD2620FFF704FF4F
:101E40000428F8D12330FFF7FFFE083843425841F9
:101E5000F2E710B52820FFF7F7FE10BD07B5002305
:101E60006A46D3806B460222991D07F0E3F96B4660
:101E7000D8880EBD10B5406B07F0DAF810BD37B545
:101E80000D000400FFF7E0FEA84206D06B460122D9
:101E9000D91D20000D7007F037F937BD70B51D0052
:101EA000052814D8072912D8062A10D80E24702322
:101EB0004C4343435200A418E4182000290A293057
:101EC000FFF7DDFF2000E9B22A30FFF7D8FF70BD31
:101ED00070B51C00052811D803290FD889000B4BB9
:101EE00000014018C518210A002A08D02800FFF771
:101EF000C6FF0120E1B22818FFF7C1FF70BD044BF7
:101F0000C018FFF7BCFF0320F4E7C046C902000079
:101F1000CB020000F7B5002470256543174B00275E
:101F2000ED180FE0E3B201937300F2B2EB5A01989F
:101F3000F9B20136FFF7B2FF072EF3D101370E35A4
:101F4000082F01D00026EDE700260D4B2501ED18E6
:101F5000F7B22B88012239000198FFF7B9FF01364B
:101F60006B88002239000198FFF7B2FF0435042E78
:101F7000EED10134062CCFD1F7BDC0465CBE0010B7
:101F8000FCC0001070B58025044C6D0120000021BC
:101F90000134FFF774FFAC42F8D170BD2903000093
:101FA00010B500280CD024212520FFF768FF04215C
:101FB0002620FFF764FF08212720FFF760FF10BDF0
:101FC000FF212520FFF75BFFFF212620FFF757FFAA
:101FD000FF21F1E710B50020FFF7E2FF00212820E4
:101FE000FFF74DFFFFF796FFFFF7CCFF0120FFF74C
:101FF000D7FF10BD37B50D000400FFF72FFFA84233
:1020000006D06B460222991D20000D8007F07CF857
:1020100037BD00000A4910B54A785307DB0F8342E9
:102020000CD00123034004209B0082431A434A70D2
:102030000988FFF7DFFF0220FEF7C8FA10BDC0468F
:10204000F624002007B507F02BF900202149FFF7FF
:10205000D1FF00210220FFF712FF01211E4B0320B8
:102060001970FFF70CFFA02104204901FFF7C2FF00
:1020700000210620FFF703FFFF210720FFF7FFFEE7
:10208000082007F0E7F800212420FFF7F8FE0021E0
:102090001720FFF7F4FE00210C20FFF7F0FE0021CF
:1020A0000D20FFF7ECFE002200236846009201930A
:1020B00007F0E2F8202007F0CDF80020FFF770FFCE
:1020C000FFF788FF0F2007F0C5F8132007F0C2F8CC
:1020D00007BDC046E6FE0000F324002010B50368EB
:1020E0009C68A2420CD85C688A600B604C602160DE
:1020F000596099688A1A9A6001235B42836010BD17
:102100001B68121BECE70000F0B5142900D2142163
:10211000D02614220D4C0E4D3606336847189B000E
:10212000E3185B689B6A04339B005F51AB6A181A23
:10213000814203D8013211001800EEE7142A03D9B6
:102140000123E2681343E360F0BDC046300F002076
:102150000040054070B50468C2608B6048600C6048
:1021600061600160142B00D21423D0210906096894
:10217000154C890061184968D5188E6A1349301DBD
:10218000800045500120B04048638D6B2843886330
:1021900014208D6AAE1AB3420ED8431CD02000061C
:1021A0000068D218800020184068806A04308000DF
:1021B0000A5018002A00ECE7142803D90123E2682A
:1021C0001343E36070BDC046300F0020004005405F
:1021D00000238268037503691B6899689142FBD2EA
:1021E0005A68036042601060586070477047000092
:1021F00010B5002805D0034B1A7810431870FFF76C
:1022000099FB10BDF024002010B5002803D0FEF784
:102210002FFAFFF78FFB10BD044A054B0220D15C5B
:10222000002901D10138D0547047C046400F00202A
:1022300004100000044A054B0220D15C002902D0A2
:1022400000210138D1547047400F002004100000D5
:1022500070B58025044C6D012A000021200009F092
:10226000C4FA024B635170BD400F002008100000FB
:1022700010B5EFF3108372B6044C236009F098FB9D
:10228000236883F31088012010BDC046840E00200F
:10229000F0B58DB0FFF7ECFF0024A04266D0FFF749
:1022A000BBFF0990EFF3108372B68022FF20314DFF
:1022B00012012B60304B40031900089309F080FB9A
:1022C0002B6883F3108880252C482D496D01089BCD
:1022D0000F001B5D122243401E001B0207930023C8
:1022E00030000693002309F053FBF30E7A011A43E2
:1022F000730101920093009A019B80185941801943
:102300007941730EFA011A43F30103920293029A80
:10231000039B80185941330E3A021A433302059247
:102320000493049A059B80185941069A079B01342F
:1023300080185941AC42CAD10A900B91EFF3108337
:1023400072B60C4C04220F480AA9236009F038FB2E
:10235000236883F31088099B012B01D1FFF76AFFE3
:1023600080230224084A08995B01CA5020000DB05E
:10237000F0BDC046840E0020400F0020252322849B
:10238000E49CF2CB00F01F000810000080218022A6
:10239000054B49015B58012010B59201934201D3CE
:1023A000FFF776FF10BDC046400F002073B58024B4
:1023B0006A460C4D6401911D2B590880EFF3108281
:1023C00072B6094E3260FF2252039818012209F0BA
:1023D000F7FA336883F310882B5902332B51FFF738
:1023E000D5FF76BD400F0020840E00207FB5274A20
:1023F000030CDBB2D45C050AEDB222002300C6B2A6
:10240000002D29D00620FF21704309F0B9FA552389
:102410005B4243437600F31803265E43FF21F6B286
:1024200033008E1B4A1B6B4375431B122D12CB1AB4
:10243000491B62436343614312121B120912D2B259
:10244000DBB2C9B206281BD8FDF7C8FF040613117A
:10245000161A040023000C00FF2120000B40084046
:102460001B020A4012041843104304B070BD21003F
:102470001C0013000A00EFE70B0021001400F9E72D
:10248000210014001A000B00E6E7C04672C20010DB
:10249000074B02005B78002B05D0002016239342E7
:1024A0004041C0B270472D2181425B41D8B2F9E76B
:1024B00088240020010030B5C0B2012916D9F723C5
:1024C000FF225B01994202D84A090832D2B20124A4
:1024D000A018401005004543ADB2C3B2A94206D2D0
:1024E000013BDAB29442F3D9013CE0B230BDFF289F
:1024F000FCD00133DCB2F5E71FB51C0001904BB2F4
:10250000080601D549424BB23820C01A80B292B2B7
:1025100052434043801880B2FFF7CCFF032242436E
:1025200001ABA4181C701A8899781000FF23120AB6
:10253000184012020B401B041043184304B010BD96
:10254000054A064B11884B4305495B189BB2180A94
:10255000C018C0B2138070473A0700200508000079
:10256000193600000F21430615D40B00020003406A
:1025700092060B49920F52005218517812784B4331
:102580001B119B1840B2DBB2002801DA5B42DBB2C0
:10259000803BD8B27047C343DAB20B400133E7E760
:1025A0006AC200107FB50E00041C01901000FFF7F6
:1025B000D9FF1C36114B7600F35C01ADC018C0B2D8
:1025C0000200803AE4B253B2120603D580235B4284
:1025D0001B1A5BB20C225B00DBB253431B12E418E4
:1025E0002C702A88FF231000A978120A18401202C2
:1025F0000B401B041043184304B070BD00C400100E
:1026000010B5FEF747FE10BDF8B505000E00170027
:10261000002420003B00320029000134FFF7F0FFC6
:102620002E2CF6D1F8BD00000A235843C0B2030097
:102630000A331A1CDBB282B02E2B00D92E220B4992
:10264000D3B2497800290BD1021C172800D21722D7
:10265000D0B2FF22134010401B02184302B0704753
:10266000172B00D91722D3B2F3E7C04688240020E5
:102670000A006423010010B5782007F017FC4342DC
:102680005841C0B210BD0000F7B5164F164B3D685B
:10269000164C1B782D1B0093ABB206000099180056
:1026A000019309F07DF9009B581AC0B2002E0CD09E
:1026B000062109F09DF9C4B2013CE4B2FF2C00D11F
:1026C000F7BD202006F0F0FBF6E78022ABB2C3187E
:1026D0009200ADB2934201DB300035002D18651930
:1026E0003D60EDE7A4200020B0220020A8200020BB
:1026F00072B6D021BE22090652008B58002BFCD0A6
:10270000BFF35F8F7047BFF35F8FD023BE221B06DE
:1027100052009B5062B67047F7B5164F164ABB6A17
:10272000642601934368C5691B68934204D9134A20
:102730005A3E934200D80F360124EB6EA343EB665A
:10274000FFF7E1FF2B009C331A681300234022425D
:1027500001D11C000AE0FFF7CBFFBB6A019A9B1A6C
:10276000B342EDD30124FFF7CEFF6442FFF7C0FF71
:102770002000FEBD00400540A0860100801A060032
:1027800070B50500C4352B780400142B29D019D856
:10279000062B06D002D8002B03D070BD093B022BBC
:1027A000FBD80021200005F059FD0021200005F094
:1027B00035FD63681B68002B02D006212000984776
:1027C00006231AE0152BE8D10A3B2B70FFF790FF88
:1027D000002320001A001900FFF794F9FFF793FF78
:1027E000DBE7C3689B695B68002BD6D10300D0335D
:1027F0001B68002B00D0984700232B70CDE710B545
:102800000C00FFF775FF207D052807D8FDF7E6FDD2
:102810000C060603130F0022A3691A6001235B4212
:102820002000A361FFF7D4FCFFF76DFF10BDA26984
:102830009368013393606268236813605A60EDE720
:10284000D0231B061B68F7B52F4A9B00D3185D6881
:1028500001922E0010362C692C4FEB69B86AA268E1
:10286000C11A8A4247D89B18EB61626800932368BB
:1028700013605A60002323602B699E420CD1D02341
:102880001B061B6801999B00CB1801215B68BA6B82
:102890009B6A99408A43BA63FFF735FF2000E368DB
:1028A00021699847FFF724FF6269002AD3D0B96AEB
:1028B000009B2869CF1ABA4210D2134B0093DB68F1
:1028C0009C46022362461343009AD360864210D08E
:1028D0003A0021003000FFF701FCBCE78642F8D146
:1028E000009B521AD3180A0030002100FFF732FC77
:1028F000F7BD0023F7E7A642FAD0191A8918E86154
:10290000A160FFF701FCF3E7300F00200040054015
:1029100001007F23D43170B5040008780340212BD7
:1029200000D085E042B24B78002A3CDA022B34D04A
:10293000032B27D0012B00D07AE04B790A791B02B8
:1029400013432200C832002B0AD0022B12D0554B61
:10295000887813601870CA798B7912021A430FE0D5
:1029600051491160082221000120CC31D0340A6085
:10297000236070BD8B78022BE9D14C4B136006228B
:102980000023F0E74B790A791B02134350D1220050
:102990004749C83211600122E5E72300454AC833A0
:1029A0001A600122ECE70A2B3AD00B2B0ED0092B30
:1029B00066D14B790A791B021343022293435FD1FC
:1029C00023003D49C83319603C4BCCE74B790A7969
:1029D0001B0213431FD18D78354B1D70002D1AD16A
:1029E000344E3378002B16D0FFF782FE0023344A92
:1029F0002900307808F0CCFF0023324A8018594172
:102A0000FA220023920008F0EBFF2100800005F07D
:102A1000D9FEFFF778FE23000022C8331A60AFE723
:102A2000294ACB78234E15783370ED09F3D1D9E7D5
:102A3000602302009A43812A22D14B78062B1FD1B2
:102A40004B790A7960681B02456813432000CA78F5
:102A50008978A847002822D023004268C8331A602A
:102A600002688DE7222B1AD123000022C8331A6096
:102A7000130078E72300154AC8331A6007227FE75E
:102A8000134B1B78002B0AD060230340202B06D168
:102A90002300D5331B78212BE4D81F2BEAD8002044
:102AA00067E7C046990B0020A70B0020A10B002070
:102AB00098090020980B0020B00B00205D17001033
:102AC00040420F00E7030000F6240020100700201A
:102AD0009A080020F0B585B0FFF70AFE274B284C76
:102AE0001D6E29680A78042A43D12200E832127840
:102AF000022A3ED12879013A82400989114238D10F
:102B00009A6BD96B8A4234D1596B002931D0196D37
:102B100000292ED00439881A91422AD01060596BAE
:102B200001395963596C5218196C9A638A4201D35E
:102B3000DA6C9A63260000271248FC3603A9376531
:102B4000FEF73FFE01902B7EBB420AD00398019B0B
:102B50002A693900121A181808F047FE336E1B69EB
:102B60000393FC34206E039B0179019A0068FEF701
:102B7000C9FFFFF7C8FD05B0F0BDC046D40800206E
:102B8000D8070020FC08002070B50C00FFF7B0FD4E
:102B90002378042B02D0FFF7B6FD70BD144B1B78D1
:102BA000DB09F8D1134D2B78002BF4D0124B1B7896
:102BB000002BF0D023899B0705D408230121200096
:102BC0000E4AFEF79FFF002328780D4A002108F0E7
:102BD000DFFE00230B4A80185941FA22002392009D
:102BE00008F0FEFE2100800005F0ECFDD3E7C046B2
:102BF000F6240020980B002098090020A70B002045
:102C000040420F00E7030000034B1A6882431A603A
:102C10009A681042FCD0704700C00040030070B5B5
:102C200041183125FF208B4200D170BD08241A784D
:102C3000504046B24200D0B2002E01DA6A40D0B213
:102C4000013C002CF5D10133EDE7000070B5FFF732
:102C50004FFD144B144D15489C6A01682B68144AAB
:102C6000E41AA14208D9134E1168A419124E9B19F7
:102C70002B60124BC918116015680460FFF743FD03
:102C8000FA22002320009200002108F081FE002398
:102C90000B4A8018594100230A4A08F0A1FE28185F
:102CA00070BDC04600400540682000206420002020
:102CB0006020002080C20E00803DF1FF7085410041
:102CC0003F420F0040420F00064B10B51B78002B0F
:102CD00002D0FFF7BBFF10BDFFF7B8FF024B1B6828
:102CE0001818F8E7882400208C240020F0B50F2461
:102CF00087B01F0002ABE4181600012300220391E5
:102D0000009311002300FEF72DFF051E29D0336824
:102D10000293FFF79BFF029B2478C01A632805D813
:102D20000D990C98FFF77AFF84421AD000220D9B70
:102D300011009BB2009303983B00FEF713FF0D991F
:102D400007000C98FFF76AFF241A63425C412500D4
:102D50003D403C4202D0FFF779FF3060280007B0C9
:102D6000F0BD38000D9A0C9907F064FEF6E70000FC
:102D7000F0B504260D4B85B000930D000020012115
:102D80000B4A019603ABFFF7B1FF0A4F041E04D0B4
:102D90003200380003A907F04DFE04223900280054
:102DA00007F048FE200005B0F0BDC04661240020B9
:102DB0005824002054240020F0B5150085B00C00E4
:102DC0000A9A19000390280008F0CCFD2768060035
:102DD000FFF73CFFC01B632801D8002E0CD00A9BD4
:102DE00029009AB2002303980093FEF7BBFE002847
:102DF00003D0FFF72BFF2060012005B0F0BD0000DD
:102E000007B502000420034B009003490238FFF786
:102E1000D3FF0EBD652400205024002010B586B0DD
:102E200002AC08222000084907F004FE1022074BDC
:102E300007491B78062023720092064B2200FFF7F9
:102E4000BBFF06B010BDC046E82400203924002096
:102E50003C2400207024002030B50E4D85B02C6835
:102E6000FFF7F4FE001B012463280FD9FFF72CFFA6
:102E700000230230039004220520009303A9FEF7EB
:102E800071FE041E02D0FFF7E1FE2860200005B0AD
:102E900030BDC04640240020F0B5C14B95B01A7833
:102EA000C04F01230590824207D13B78BE4A9B0761
:102EB00012789B0F9B1A5A1E9341BC4CA3707B79CE
:102EC00062789A4205D00022110010006370FFF76B
:102ED0009BFB059B2C2B00D9B0E21800FDF788FA6C
:102EE0002D0044006F00B200E40016015A015E019B
:102EF000760189018B018F01910193019501970161
:102F000099019B019D019F01A101A501A701A901B3
:102F1000D9010802510253025502A50286031A0480
:102F2000A7046A056E0570057D0580058205840588
:102F3000860588058A058C058E05A3789C4D002B97
:102F400001D100F05DFD002211001000FFF75CFBD5
:102F500023780133237002232B70A378002B01D137
:102F600000F051FD15B0F0BD2078FFF75DFB12AB0E
:102F700018800322791C0604C5B213A807F05AFD75
:102F80001398FFF733FA03020704C2B21B0E360E82
:102F900001923F0E0293EBB29E4203D83000FFF73E
:102FA00077FA16E1834B62785B5D1A4205D03900EF
:102FB0002800029B019AFFF723FB0135EBE72078FD
:102FC000FFF732FB0304774F12AA1B0E1080019308
:102FD000BA78FB787E7813AD2E706A70AB70C4B28D
:102FE0001398FFF703FA02040302C1B2120E1B0E7C
:102FF0000292069104933B79F6182E701398FFF70E
:10300000F5F9012502040702130EC6B203933F0E21
:10301000019AE3B29A4201D81000C0E7654B634AB7
:103020001B5D52781A4207D02B4207D03B0032007A
:1030300003992000FFF7E4FA0134E9E7049B069ABC
:103040000299F6E72078FFF7EFFA12AB1880BB7809
:1030500005040193FE783F792D0EBF08C4B2E3B298
:103060009D4201D828009AE7524A504B125D5B7886
:10307000134217D050496300CB5C4A491B097B437C
:10308000497813AA5B181370019B967053701398BC
:10309000FFF7ACF901040302C2B2090E20001B0EB7
:1030A000FFF7AEFA0134DAE72078FFF7BDFA12AB8A
:1030B00018803B7904049B08BE78FD78240E0193A8
:1030C000C7B2FBB29C4201D8200068E7394A374BAF
:1030D000D25D5B78134217D038497B00CB5C0199F5
:1030E00013AA4B432F495B11497856705B18137034
:1030F00095701398FFF77AF901040302C2B2090E22
:1031000038001B0EFFF77CFA0137DAE72078FFF76B
:103110008BFA030412AA1B0E108001937B78C4B2B1
:103120000293274B38791B68C0089BB258430012A2
:10313000C0B2FFF717FA0200803ABE78FD7853B2AA
:10314000120603D580235B421B1A5BB25B00DBB225
:103150005D43029913AA2D12567095701170139841
:10316000FFF744F907040602C5B23F0E360E019A76
:10317000E3B29A4200D84FE70E4A0C4B125D5B78DF
:10318000134205D033002A0039002000FFF738FA37
:103190000134ECE70B4805F0FFFC1AE00A48FAE7B7
:1031A00038070020E82400203707002034070020DB
:1031B0009A09002094C4001039C4001038C40010CB
:1031C000000E0020590A0010AD0A0010D74805F083
:1031D00045FBD74B1A7801321A70002800D0C1E69F
:1031E0000221D44A11709B78002B00D0BAE6059BCF
:1031F000B4E6D148EBE7D14805F09AFBE9E7D048BF
:10320000FAE7D048C7E7D048C5E7D048C3E7D04879
:10321000C1E7D048F0E7D048D9E7D048D7E7D04851
:10322000EAE7D04805F0FAFBD3E7CF48FAE7CF4802
:10323000F8E72078FFF7F8F913AB1880A3780504B6
:103240002D0EC0B2002B1BD13A791032131CFF2A6D
:1032500000D9FF23C64A9BB210680A2180B25843A6
:10326000001280B208F0B4FB89B2002900D0F9E660
:10327000FFF766F92E235843001205F02DFCF1E606
:103280000400AC4200DBEDE6200005F025FC013433
:10329000F7E72078FFF7C8F913AB1880A378050487
:1032A0002D0EC0B2002B1AD13A791032131CFF2A0E
:1032B00000D9FF239AB2AE4B1B689BB25343AD4A71
:1032C0001B125343AC4A9BB2934200D9CAE6FFF7A4
:1032D00037F92E235843001205F036FCC2E60400ED
:1032E000AC4200DBBEE6200005F02EFC0134F7E71F
:1032F0002078FFF799F911AB032218800504C3B2B7
:10330000791C12A8019307F095FB994B38791B683B
:10331000C0089BB258430012C0B2FFF723F9020065
:10332000803A7E782D0E53B2120603D580235B427D
:103330001B1A5BB20C225B00DBB253431B12F61864
:1033400014320AAB9B181E701298FFF74FF813AE99
:103350000304307000021B0E000E019F7370B070EA
:10336000FBB29D4200D87DE6844B6278DB5D1A4259
:1033700005D03800B37832787178FFF741F901371A
:10338000EEE77F4807E77F4805E72078FFF74CF92D
:1033900012AB06041880330E0193754B1E687A4BEE
:1033A0001B689E423BD9FFF7CBF82E254543734B54
:1033B0002D12EB5C62781A4231D0FFF7C1F880071A
:1033C0002FD4FFF7BDF80400FFF7BAF8C0010012D0
:1033D0007F30FB78C0B213AA1470937050701398AA
:1033E000FFF704F80104030211AA090E1B0E107066
:1033F00051709370C9B2C2B2DBB22800FFF700F976
:103400003B79614C1033191CFF2B00D9FF21FA20A6
:1034100089B20909400008F0B3FA801920600198C8
:10342000BDE5002318001C00D5E7514B574A1B6827
:10343000126802930299A3788A4203D92378013350
:103440002370E5E2002B3DD1394E03253078FFF79C
:10345000EBF8C4B2654303041B0E01934C4B12AA54
:103460001080ED18019AE3B29A4200D996E010005C
:10347000FFF70EF8021ED2D1019B5D1E002B01D07A
:1034800003326A43424C4349200008F09BF9FFF79E
:1034900057F8800700D48FE0032300226B431A55AE
:1034A000E3185A709A703B79384C1033191CFF2B73
:1034B00000D9FF2189B23848090908F061FA029B56
:1034C000C018ABE70022002611001000FFF79CF89F
:1034D0002F4DFFF735F80223184208D000232B7038
:1034E0006B70AB70013603352E2EF2D1ACE7FFF7CF
:1034F00027F813AC2070FFF723F8C00100127F30CB
:103500006070FB78A3700323734313980193FEF755
:103510006DFF1F4C019B019A185503040002A4186B
:103520001B0E000E6370A070DCE7C046FD0A0010A1
:10353000340700209A090020390B0010790B001085
:10354000B90B0010F90B00101D0C00104D0C0010F1
:10355000810C0010D10C0010F9240010FF0C001099
:103560002D0D0010610D0010A90D0010F10D0010BF
:10357000000E0020CDCCFFFF3333000094C40010B8
:10358000A5250010510E0010480D0020D80D002078
:103590004C0D00204F0D0020B80B0000C44B72787A
:1035A0001B5D1A4205D02000AB782A786978FFF7B6
:1035B00027F80335013455E7FEF7C2FF13AE30702C
:1035C000FEF7BEFFC00100127F307070FB78B37051
:1035D000032313985D43FEF709FF285503040002F7
:1035E00064191B0E000E6370A0705CE7A378002BBB
:1035F00004D0002211001000FFF706F82078FFF732
:1036000013F803041B0E0993AA4B11AA1B68108020
:103610000793A94B079A1B689A4264D9791C032225
:1036200013A807F007FA1398FEF7E0FE030212A9A9
:103630001B0E8B700204DBB2120E04939F4B4A7078
:103640000870D2B2C1B29E4F9E4E0291039208936F
:103650003D000023019600E001230693069B2C7891
:10366000F05C002C41D0049B029A0399FEF7C8FF3E
:10367000019B029A98790399049BFEF7C1FF6B782E
:103680002B70019B0135013B0193069B002BE3D07E
:10369000BC78B078002C33D0049B029A0399FEF7D3
:1036A000AFFF3079049B029A0399FEF7A9FFFEF75A
:1036B00047FF0323184043425841089B0736B87020
:1036C0000337B342C4D1804B7B4C1B791033191C98
:1036D000FF2B00D9FF2189B27C48090908F050F975
:1036E000079BC0182060099859E42300220021009C
:1036F000FEF786FF019B2200987921002300BCE79A
:10370000230022002100FEF77BFF2300220021007E
:103710003079CAE72078FEF787FF11AA03041080EA
:103720001B0EC2B204920393A378002B09D000228F
:1037300011001000FEF768FF38220021644808F0ED
:1037400054F82378002B10D1624C2588FFF77EFABD
:103750001823401B80B283429B415F4A5B42137037
:10376000182802D9FFF772FA20800024029426005C
:10377000574FE719534B049A9D5DAA4248D8039AC4
:10378000AA4245D9554A5B1994331B7852781A429C
:103790003AD03B78019301994B4BAA319A780B1C94
:1037A000FF2900D9FF2303214B4347490233C9783E
:1037B000DBB24B4301981B0A5538011C002800DA84
:1037C000002156204042411A12A8017042708370B5
:1037D0001298FEF70BFE0104030213AA090E1B0E3A
:1037E000107051709370C9B2C2B2DBB22800FEF7FC
:1037F00007FF394B1B78002B06D0019D013D2B1C88
:10380000002D00DA00233B70029B0133DBB20293F0
:103810000136E31D0137B342ACD1312C02D10398FC
:10382000FFF7BDFB029B092BF9D834009FE7032368
:10383000FD78FF206B439B1003936B461B7B290095
:10384000089308F09DF8C3B20793A378204A069224
:10385000002B0CD0002211001000FEF7D5FE3822FC
:103860000021069807F0C1FF00221D4B1A700024AA
:103870001C4A137801331370069B0493114F0023E5
:10388000049EE71912E0164B019A1B7813432DD1C1
:1038900007F0DAF8144B984228DC049B1D703B7843
:1038A0000293FF2B32D107370736FE3B0193EAE73D
:1038B00094C40010000E0020F40D002038C4001045
:1038C000DC0D002000C40010E8240020B80B00002C
:1038D000B0230020FA0D0020F80D0020340700204E
:1038E000FD0D0020FC0D0020545555053378002BAC
:1038F00008D09D4206D9494A079912788A4201D1D7
:10390000013B33703B780293FF2B0FD03078089B3C
:10391000834247D2039BC01AE91A584308F030F893
:10392000C1B20B002A000298FEF76AFE019B07371E
:103930000133DBB201930736082BA4D1049B013479
:1039400001330493072C99D1344B07991A788A4292
:1039500001D100221A70324932480B7802780133C3
:10396000DBB20B701C2B51D900230720069F0B7074
:103970003137691E07223B1B072803D11E5DB54264
:1039800000D119551E78AE4201D31970DD71013A8C
:10399000D2B20133002AEFD10138C0B20734002877
:1039A000E8D116E40399684307F0EAFF0023C2B2A6
:1039B0001900B8E71C4805F03FF90AE41B48FAE78C
:1039C0001B491C4B1B78013B181C002B00DA002004
:1039D000C0B205F0B5F9FFF7FCFB15490020F8E788
:1039E0001549EEE71449F9E71449EAE71349F5E701
:1039F0001349E6E71249F1E71249E2E71149EDE719
:103A000023780133237003220F4B03E0013202704D
:103A100002220D4B1A70FFF7A5FAC046FC0D0020DC
:103A2000FD0D002034070020990E0010C90E001073
:103A3000FD0E0010772000203F0F0010B10F001086
:103A4000251000106B1000109A09002070B5041E9C
:103A5000064E08D03578002D05D12800FFF71CFA56
:103A60002800FDF729FB347070BDC04639240020C2
:103A70003D4BF7B51B783D4D2C68002B2BD0FFF745
:103A8000E5F8041BFFF720F92860002506002F0049
:103A9000374B1B789C461900364B1B1B0193EBB22E
:103AA0009C451BD8002F01D0314B1970324B1A782E
:103AB00000239A4207D1314B03211A7813000B409F
:103AC0000A4200D093082E4D2878032831D8FCF7FD
:103AD00085FC202D3135FFF7F7F8D2E72B00244A7B
:103AE0000C335B00D218937850781B020343019883
:103AF000984204D201270139C9B20135CFE71B1919
:103B000098B20090FF2003405370009B180A9070F9
:103B1000F3E700221B4B1C481A701C4B1449293236
:103B20001E6006F087FF01232B7002E01800FFF7EC
:103B3000B3F9F7BD1800FDF7BFFAFAE7144B1B788D
:103B4000002B01D0FDF740FF104B1C68064B1B7883
:103B5000002B06D0FFF77AF8041B0F2CE9D90023BD
:103B6000E2E7FFF7B1F8F7E788240020440D0020D2
:103B7000E8230020FFFF000039240020E824002073
:103B80009A0900203407002077200020000E002032
:103B900076200020F0B5924B89B01B78002B68D0BE
:103BA000904C2588FFF752F8401B80B2312844D949
:103BB000FFF74CF88C4B8D4A20801A608C4B1B7899
:103BC000002B00D186E08B4805F0CEF98A4B18789F
:103BD000FCF74AFC032854D8FCF700FC024D4F5177
:103BE000864805F0CEF9864B18783030C0B205F023
:103BF0005BF9844805F0B8F9834B18783030C0B2CF
:103C000005F052F9814805F0AFF9814B814A1C88D3
:103C10001188814B814DA14235D11978202932D1AB
:103C200028000378202B53D005F09EF97C4805F03E
:103C30009BF97C4B187805F037F97B4D2B88002BCE
:103C400009D07A4B1C78002C05D105F03BFA2A8864
:103C50000123002A44D1764B1B78002B09D0FEF7B4
:103C6000F5FF744B1B68C01A734B984201D805F0DE
:103C700011FA09B0F0BD7148B3E77148B1E7714876
:103C8000AFE77148ADE7148020221A7000230426A4
:103C90000A276B713900200007F09AFE3031C9B253
:103CA00030290CD1042E07D120002971263907F0C4
:103CB0009FFE013E0400EDE7002C00D120212000F2
:103CC000A955390007F094FE0400013EE2D2A7E7AF
:103CD0000130A6E75D4805F047F9AEE70134E4B2EC
:103CE000110021411942F9D0594D2A781A422AD19E
:103CF0006022630113401A00A1080E001F325548CC
:103D00008171072183704671C270FEF7B1FC0028F3
:103D1000A1D00122630106932B7813421AD1334AB2
:103D200063019A186423402178200093443B06F0F5
:103D3000F3F8002800D08EE70121A1403A4B1A8801
:103D40008A431A8087E7E300DBB2DA1D00260321ED
:103D5000D2B2D4E7202200213F4807F046FD0727D2
:103D600000203E4B0793079B069A1B5C9B181F4A3B
:103D70009B1803933A4B1A5C374BD31800220293DB
:103D8000BB1ADBB2059301239340DBB20493029B81
:103D900000259B5C9C46039B595D049B19400E00CB
:103DA000059B5B1B3B409E405B423B40D9406346CA
:103DB0000E433343DBB201359C46082DEBD16146FF
:103DC000029B99540132082ADAD101300428CAD161
:103DD000642340210093204A443B7430A7E7C04647
:103DE000AA220020E80B0020A4200020A820002008
:103DF0008824002074BB0010F42400207CBB001039
:103E0000E52400209DBB0010E42400209FBB00108F
:103E1000E224002018070020C60B0020C00B002061
:103E2000A3BB001099090020A0200020A822002098
:103E3000A9220020AC220020FEFFFF7F84BB0010DF
:103E40008ABB001090BB001097BB00105CC1001033
:103E5000B12200201A070020C70B0020A0C10010CB
:103E60009CC1001010B5FEF7F1FE83B20A488278BB
:103E7000C1780A4301D0094A1380027941790A4383
:103E800001D0074A1380074B1B68002B03D0022286
:103E9000DB680270984710BDDB2400202C24002032
:103EA0002A240020B424002010B5041E28D0031FAB
:103EB000DBB2A02B25D8294B1B78002B14D0284B24
:103EC0001A7800237F2A0FD9264BC2089B18072295
:103ED00099780123024093400B420CD02000FDF75B
:103EE000AFFBFDF727FD06E01F4AD15CA142F5D0EC
:103EF0000133062BF9D12000FDF76CFBFDF71AFD0D
:103F000010BD03002033DBB2072B08D807210123A3
:103F100001408B40154A11780B431370EEE7030004
:103F20005B33DBB2022B04D8243CA0B2FDF71EFBAE
:103F3000E6E703005833DBB21A2B05D80C4A5B00C6
:103F4000985AFDF72DFBDBE703003333DBB2122B6E
:103F5000D6D8FDF727FAFFF785FFD1E798090020AB
:103F6000F6240020700B0020920B0020F02400208B
:103F7000D8C4001010B5002807D0031FDBB2A02B57
:103F800004D8FDF75DFBFDF7D5FC10BD0300203321
:103F9000DBB2072B07D80723034001209840C0B2AB
:103FA000FCF766FBEFE703005B33DBB2022B03D8C1
:103FB0000020FDF7DBFAE8E703005833DBB21A2BE9
:103FC00003D80020FDF7ECFADFE703003333DBB260
:103FD000122BDAD8FDF746FAFFF744FFD5E70000C9
:103FE00010B500240D4B1C70FDF714FE2000FDF7EA
:103FF000BDFA2000FDF7D4FA094B1C70FDF79AFCBE
:1040000006222100074807F0F0FB074B1C70074B06
:104010001C70074B1C70FFF725FF10BDF02400201B
:10402000F8240020DB240020DA240020D9240020FA
:10403000D82400207047FEE770B5124C62682068F3
:104040001100A3688B4219D8D11E00208B4203D3E4
:1040500003339B1A9B0898001018E368C11E0022C6
:10406000994203D803331A1A92089200002107F0EC
:10407000BCFB054B10349C42E0D170BD20C820C170
:10408000E0E7C0460CBD00108CBD001072B6D02118
:1040900009060B68054A9B00D3185B6898650223E4
:1040A0005B424B6505331370FEE7C046300F0020BE
:1040B000034A916A936A5B1A9842FBD87047C046DC
:1040C0000040054070B504F013F9074C074B226817
:1040D00000259A4205D006482360FFF7E9FF2560D6
:1040E00070BD256004F0D2FEF02C0020BAB0FECAEC
:1040F00020A1070070B5130004000E4A00680D00EF
:10410000926A844203D12000FEF724F870BDE16872
:10411000511A5E188E4200D21E008168B14203D946
:1041200019001000FDF7F0FF320029002000FDF714
:10413000D5FFEBE70040054070B5D0252D062B6874
:104140001B4A9B00D3185B68196988420CD002682F
:10415000416884680A605160916809199160002281
:104160000260013A9A6170BD1900046810311C6147
:104170006160002404601E690E4CB1420AD12968B6
:10418000A36B890052185268916A01228A409343B6
:10419000A363E8E78168B268DB695218B260A06A7D
:1041A000C11A8A42DFD9191A8918FDF7ADFFDAE77B
:1041B000300F002000400540D0231B061A680E4B2C
:1041C00092009B185B6810B51868D96802681A607D
:1041D000536001220275D86000238A680B750B6951
:1041E0001B689C689442FBD85A680B604A60116057
:1041F0005960FCF76BF810BD300F0020D02212067A
:104200001168084B89005B185B68016910B5994219
:1042100005D0136D9B0702D501235B425365FDF763
:10422000D7FF10BD300F00201A4AF8B51A4B12689C
:10423000DB68D200D3400F22FA2113401748013324
:104240005843890007F0D4FB154B596A0A009E6A4F
:10425000596A9142FAD100241930FF3032000B0024
:104260000600270092197B410E4D2A606B60FEF715
:104270003FFA0D4B9A6801329A60A24206DC186838
:104280000268536084611A60FFF7B8FFFEF73BFADB
:10429000F8BDC046300700200000205030750000F7
:1042A00000400540F00B00202407002070B50500F9
:1042B0000E000468AC4200D170BDE3683343E36094
:1042C000236933420AD06068A368C2691343027D40
:1042D000C3610A2A04D182691A4207D12468E9E736
:1042E0000B2AFBD1826913409A42F7D100238361E4
:1042F000FFF784FFF2E70B00F0B511339B00C31802
:104300005C6805000E0085B0002C19D02700FEF770
:10431000EFF90821201DFFF7C9FFB31C9B00EB1824
:104320005B68443700935B691B680193002B09D1DC
:10433000380003A9FDF745FA021E18D1FEF7E3F98C
:1043400005B0F0BD236D226E01332365A36D9B186C
:10435000E26DA365934201D3A36EA365606CB8427E
:104360000BD1380003A9FDF72CFA021E0DD0039BD8
:1043700031002800FDF7C6FBE0E7036863645F6077
:1043800000238361FFF73AFFEBE7009B019A1B8A4A
:10439000013B1A42D2D1E36F1B7E002BCED12A0003
:1043A000D432E5E72131890010B50C58002C2CD00F
:1043B000FEF79EF90421201DFFF778FF2100E36F2F
:1043C0000C311A685B7902339B00D3185B689B69D8
:1043D0005A68E3691A60A2690132A261A26A9B1855
:1043E000626AE361934201D3236BE361E068814237
:1043F00006D00368E360596000238361FFF7FEFE87
:10440000200004F015FEFEF77EF910BDD0231B0638
:104410001A68084B92009B185B6810B5D96808753C
:10442000186802681A60536001220275D860FBF7B1
:104430004DFF10BD300F002030B50400D0200A0021
:104440000006036812499B00CB185B6887B0DD68E3
:10445000531C18D0036804959B00C9180D4B48687D
:1044600003930023694610300593FFF743FE2000B5
:10447000FFF7CCFF009B002B02D06846FFF75CFEE5
:10448000A86907B030BD2000FFF7C0FFF8E7C046BD
:10449000300F0020FF270010D0231B061A68074B9F
:1044A00092009B185B6810B51A68DB6892689B687D
:1044B0009A4201D9FFF780FE10BDC046300F0020A0
:1044C000D0231B061A68034B92009B185B68D868C0
:1044D0007047C046300F002070B504000D00E3683F
:1044E000002B07D0236900201A1DA262E2699B18E5
:1044F000E36211E0237A002B0FD1FFF7E1FF002DDB
:104500000ED0636804604360290018606060042076
:10451000FFF792FF0028E2DA70BD02204042FBE77D
:104520000120FBE770B504000E001500FEF7E0F86F
:10453000A36A002B09D129002000FFF7CDFF051E3B
:1045400003D0FEF7E0F8280070BDA36A1E70A36ACE
:10455000E26A0133A362934204D3E1692000043983
:10456000FDF73DF9FEF7CFF80025ECE7012210B585
:1045700044305242FFF7D6FF10BD10B54430FFF76C
:10458000D1FF10BDF7B504000E0000920193002783
:10459000FEF7AEF8A36A002B09D120000199FFF7BE
:1045A0009BFF002803D0FEF7AEF83800FEBDA06ADE
:1045B000E56A009B2D1ADB1B9D4200D91D00402D92
:1045C00018D93100402206F035FAA36A403640334C
:1045D0004037E26AA3629A4204D8E16920000439B4
:1045E000FDF7FDF8FEF78FF8009B9F42DDD2FEF746
:1045F0007FF8CFE731002A0006F01CFAA36A76198B
:104600005B197F19E5E7012310B544305B42FFF7E2
:10461000B9FF10BD10B54430FFF7B4FF10BD70B541
:1046200004000D00E368002B07D062690020131D11
:104630001268A3629B18E36211E0237A002B0FD16A
:10464000FFF73EFF002D0ED0636804604360290031
:10465000186060600420FFF7EFFE0028E2DA70BD0A
:1046600002204042FBE70120FBE770B504000D008B
:10467000FEF73EF8A36A002B09D129002000FFF7BE
:10468000CEFF051E03D0FEF73EF8280070BDA36ADA
:10469000E26A1D780133A3629342F4D32000FDF750
:1046A0007CF8F0E7012110B50C304942FFF7DDFF3F
:1046B00010BD10B50C30FFF7D8FF10BDF7B50400E2
:1046C0000E00009201930027FEF712F8A36A002B58
:1046D00009D120000199FFF7A2FF002803D0FEF7BF
:1046E00012F83800FEBDA16AE56A009B6D1ADB1B5B
:1046F0009D4200D91D00402D16D93000402206F001
:1047000099F9A36A403640334037E26AA3629A427D
:1047100002D82000FDF741F8FDF7F5FF009B9F420E
:10472000DFD2FDF7E5FFD1E730002A0006F082F97D
:10473000A36A76195B197F19E7E7012310B50C30DE
:104740005B42FFF7BBFF10BD10B50C30FFF7B6FFA3
:1047500010BD0000F8B50E000400283EA419150095
:104760001F00FDF7C5FF2300D020069A243BE3601D
:104770005A611E4A1F611A62000602681C4B9200B1
:104780009A18576802260022A682A5606562E26137
:1047900001682761B1405B185B682262D9689C465A
:1047A000A2619F420CD0036D334202D001235B42D1
:1047B00043652000FDF70CFDFDF7A5FF2000F8BDC7
:1047C00088688542F5D90B690A751B689A6890421A
:1047D000FBD35A680B604A6011605960012323754E
:1047E00063462000DC60FBF771FDE5E7ED02001099
:1047F000300F002010B50400FDF77AFFFFF760FED0
:1048000084610F20FFF702FE10BD10B50400FDF714
:104810006FFF21000820FFF70FFEFDF774FF10BDAA
:1048200070B505005024392800D000242800FA264D
:10483000FFF73AFBB600002C03D12800FFF79AFBE4
:1048400070BD3000013CFFF7E0FFA4B2F3E70000C9
:10485000F0B5037989B00090002B79D00121FDF7E4
:104860008FFA009B05005C79002C01D100F07DFDE2
:10487000B94BC3189BB27F2B00D9DAE0C5B20F2D1C
:1048800057D8B648FDF7E0F9002852D18024B44F3C
:104890006401002D2DD1069507957B1C380000265C
:1048A0000193FDF7D1F906AC20706670B04240D09C
:1048B00001284FD1781CFDF7C7F9BD1C6070B042CC
:1048C00037D0431E022B1FD82800FDF7BDF9033750
:1048D000A070B0422DD0E6702678002EDDD0012EDB
:1048E00064D16378A078012B36D10234FFF798FFAA
:1048F00037E0A7421DD03800FDF7A6F901370028A0
:10490000F7D1013DEDB2C4E72F000428E4D102261F
:104910002800FDF799F90135A055002809D07C2819
:1049200004D10023A6192F007370D5E70136072E96
:10493000EED18C4B1B785B070AD0009B5B79002B78
:1049400006D0894B5B785B0702D50220FBF73EFE61
:1049500009B0F0BD019FBFE7022B04D10234FFF77D
:10496000A3FA0134B8E7032B03D10234FFF702FBAB
:10497000F7E7042B01D00134F3E77C4A0025944685
:104980000A2602346246125C611C1A4208D1FA26D9
:10499000B600002DE5D03000FFF737FF013DF8E706
:1049A00075433038451960780C00EBE7704A0121F7
:1049B000935DF208019307231E406E4B01209B5C20
:1049C0003341194002916C498D5C6C4935418A5CD8
:1049D0000540039203420BD1002D19D10198FFF736
:1049E0001FFF039B012233411342BAD02C207DE7E5
:1049F0000223634A11780B431370FCF79BFF002DD1
:104A000006D10198FFF70CFFE120FFF7B3FAE8E7C2
:104A100040235B4A11780B431370FCF78BFF01981E
:104A2000FFF7FEFEE620FFF7A5FA029B002BD8D089
:104A3000EAE7009A534B527880211A70009A524B41
:104A4000127889011A702022504B1A70504A108037
:104A5000504A821892B28A421FD2009A91794E4AE5
:104A60000F290DD8002313704C4B02209D426ED1AC
:104A7000FBF70AFD032202210120FBF77FFD58E727
:104A8000C1B23C29EED84648415C1970002313702E
:104A9000444B9D42E8D10120EAE78021424A490186
:104AA000821892B28A4221D2009A91793A4A0F2909
:104AB00015D8002313703D4B9D422BD93C4B9D4292
:104AC00000D183E23B4B9D4200D00CE2264B58784C
:104AD00001234007C00F5840FDF79CFA03E2C1B222
:104AE0003C29BFD82E48415C1970BBE7F821421E13
:104AF000FF3A92B249018A4204D2C1B2264A3C2905
:104B0000F0D9D6E72C4A821892B21F2A15D8002273
:104B1000214B1A70294B9D4200D150E2284B9D42F7
:104B200000D146E2033B9D4200D0DCE1FFF758FA9A
:104B30002448FFF76AFE04F0A9F93C2801D900F0E7
:104B400006FC174A125C1A700022134B1A70174B9E
:104B50009D42B0D10120BFE70089FFFFFF0F000099
:104B600029030000F5240020F6240020A5CC001025
:104B70002EC500101EC500100EC500100EC5001079
:104B8000F0240020E5240020E424002099090020DE
:104B9000E224002000E0FFFFE6240020787C0000F3
:104BA000AEC50010777C000000C0FFFF5A7C0000FB
:104BB0005B7C00005C7C000060ADFFFF017C0000BE
:104BC000037C000090D003002623E1221100200086
:104BD00004F0DEF9ADE62723E522F7E72623E122FC
:104BE000E021F4E72723E522E421F0E72623E12270
:104BF000E221ECE72723E522E621E8E7282301224A
:104C0000E521E4E70022A04B1A70A04BEB189BB201
:104C1000222B15D99E4B9D4200D039E755229D4B42
:104C20001B7893431900481E81419B4A352011701F
:104C3000002B00D10C38FCF7CDFCFCF77BFE78E6AE
:104C40000420FDF70BF9954C954B2080E81821289E
:104C500012D8FBF7C3FB46AE4F20235226555E2FDA
:104C6000A6326135648D3867953E6D7329582C5B8B
:104C70004270809FA41C4AB60123227813432370FC
:104C800004202188FDF7B6F9FFF7AAF951E60823B9
:104C9000627813432CE002232278EFE70423227882
:104CA000ECE708232278E9E701236278F1E70223A1
:104CB0006278EEE710232278E0E720232278DDE710
:104CC00040232278DAE7FFF78BF9802322785B42D2
:104CD000D4E70C2322789A43D0E7032362789A43DF
:104CE000D7E7012223789343C9E7082263789343E7
:104CF0006370C5E702222378F5E704222378F2E700
:104D000008222378EFE701226378F0E70222637834
:104D1000EDE710222378E6E720222378E3E740221C
:104D20002378E0E7FFF75CF97F2223781340A6E7BA
:104D30000C222378D7E703226378D8E701220420E6
:104D400023785907C90F8A43910083430B430821F5
:104D5000D2008B4392E7012108006378DA07D20F73
:104D6000904302228B430343410093430B43BFE72D
:104D7000012223785906C90F8A4392014021E8E7AE
:104D8000FFF72EF901222378D9094A407F21D20169
:104D90000B4073E701210E20FDF771F870E7002149
:104DA000F9E701222378D906C90F8A43120110219D
:104DB000CFE7012108002378DA07D20F90430200E1
:104DC000C7E7012263781907C90F8A430821D20077
:104DD0008B435EE722222F4B1B781340314AA818E1
:104DE000142879D8FBF736FB15002000260029008F
:104DF0002C002F003200350038003B003E004100FF
:104E0000460049004C00A5FDA5FDA5FDA5FDA5FD9D
:104E1000A5FD0120244A1378434013700022234B40
:104E20001A70FCF741F984E5214A22491800FCF781
:104E300059FA7EE51F4A1E49F8E71F4A1F49F5E760
:104E40001E4A1D49F2E71E4A1E49EFE71D4A1C494A
:104E5000ECE71D4A1D49E9E71C4A1B49E6E71C4AE5
:104E60001C49E3E71B4A1A49E0E701210800FCF767
:104E70003BF95EE501210520F9E701210D20F6E768
:104E800001211220F3E7C046E62400200090FFFF36
:104E9000167C0000F0240020E7240020F6240020E7
:104EA000FF8FFFFFE087FFFFE82400209A09002022
:104EB00045110010291100109D11001085110010DE
:104EC000DD110010B91100102512001001120010A0
:104ED0006912001049120010A54B9D4265D0A54BE8
:104EE00002209D4262D0009A009B12885B7905AD3A
:104EF0002A800598002B6BD0FCF71AFF04000100F4
:104F00000598FBF703FB2A8806AB1A802000069958
:104F1000FCF7EAFEFBF780FC0022009B041C9F7953
:104F20005D79954B3F0902931B7801925B072AD06C
:104F30000195954227D023041B0E19000F3291438F
:104F400040290FD0C1B20A0000202032D2B2019015
:104F5000072A18D91F229343202B03D1012912D9E4
:104F6000874210D00022854B01925B785B070AD5FF
:104F70000220FBF72BFB0722029B1B7813405A42AF
:104F80005341DBB201932304180F0B287AD8FBF7A7
:104F90002FFA2300230058005800D000E4007900C5
:104FA000790005016501780178010120FBF776FAA7
:104FB00060E504F075F900207149FDF71BF8FFF773
:104FC0000FF87048FFF721FCFCF766FB002083E533
:104FD000FBF7B8FA040096E726052304360F1B0EEC
:104FE0000F2B00D93601E4B2002D13D0002E0DD0C6
:104FF00023002033DBB2072B02D9634A002C00D1F7
:10500000624A137833431370FCF794FC2000FEF7D8
:105010004BFF37E02000FEF7ADFF002E32D023001B
:105020002033DBB2072B01D9002C03D13000FBF772
:105030001FFB03E0544A1378B3431370FCF77AFC68
:1050400020E00F22230426051B0E360F9343202B4E
:1050500000D03601E4B2002C06D0012C52D0002D35
:105060005BD0002F2ED0D1E7444B5B785B0725D473
:10507000002D05D0002E05D0444A13783343DCE7D9
:10508000002ED3D1019B002B13D0029B1878012353
:1050900002001A4018420CD1009BC0085A71FBF75D
:1050A000F3F90098FFF7D4FB029B1878C008FBF7D0
:1050B000F5F900210098FCF763FE49E4002D10D0BB
:1050C000002F03D13000FDF793F8DBE7012FD9D192
:1050D0002F4A13781900334331408E42D2D01370D7
:1050E000D0E7002FCED13000FDF78EF8284A137894
:1050F000334201D0B3431370264A13783342C1D0F0
:10510000B343ECE7002D02D0052FBBD8DAE7042F1C
:10511000B8D83000FDF778F8B4E7002FF9D00120B7
:10512000392C00D11C48FFF770FB2000FEF722FF4E
:10513000A8E72005800F09D00128A3D100208542CF
:1051400001D0A005800DFCF72BFA9BE7002D01D0C4
:10515000A005800DFCF70AFA94E7E0B2002D04D018
:10516000FCF720F9FEF77EFE8CE7FCF77BF9F9E708
:10517000777C0000787C0000F5240020F6240020D5
:10518000FFFF000090D00300F8240020F02400204E
:10519000F1240020F22400208038010023049B0128
:1051A0009B0F28D1002D2DD110202206520F9200E6
:1051B0002307D2B21B0F93400100DBB221402042F3
:1051C00003D00F219140C943C9B224056F4AA40FEF
:1051D000022C0CD0032C08D0012C04D019431378D6
:1051E0000B4013700EE0107803430B43F9E70B43B9
:1051F00011784B40F5E7A3059B0FDAB2002D04D0E0
:10520000DB0704D4FCF7A2F93CE7012AFAD9102005
:105210002106490F89002307C9B21B0F8B400200EA
:10522000DBB22240204203D00F228A40D243D2B2C6
:1052300024055749A40F022C0CD0032C08D0012CB4
:1052400004D01A430B7813400B70DBE70878034354
:105250001343F9E713430A785340F5E7E6B2240510
:10526000240F002D06D02000FBF70EF93000FCF7CC
:10527000BFFFC7E73000FCF7C7FF2000FBF70EF9C0
:10528000C0E7E6B23000F038042846D8FBF7A6F8AD
:10529000032510172100002D07D0042FB2D80123B9
:1052A000E404E40EA3403A4AA2E7052FAAD8F6E7A1
:1052B000E004C00E002DE1D1FBF7E6F8A2E7344A86
:1052C000002D04D00123E404E40EA34089E7157007
:1052D00098E7304E73785B0704D4E004C00E002DCD
:1052E000CCD0E9E7002D0ED0E404E40E2000FBF75B
:1052F000CBF873785B0704D50323E2001343029ACB
:1053000013702000D8E70120FBF760F9012F00D8C7
:1053100078E70220FBF75AF974E7002D08D0002F38
:1053200003D03000FEF7C0FD6CE7E004C00EC3E719
:10533000002F09D00120392E00D11748FFF765FA58
:105340003000FEF717FE5DE7E004C00E96E7134B52
:10535000C018062800D955E4FBF77CF840FC44FC53
:1053600036FC3DFC48FC4CFC50FC0C4BC01806289D
:10537000F2D90B4B9D4200D02CE50A4B35201B780F
:10538000002B00D10C38FCF75BF956E4F324002025
:10539000F4240020F624002080380100E883FFFF79
:1053A000167C0000E7240020F8B51A4883790F2BFB
:1053B0002BD84379002B28D0174B05881A78174B28
:1053C00046881C7807239C46154FA2421DD0D30067
:1053D000DB191979002919D01988A94216D15979F0
:1053E000002913D15988891B89B2C7290ED80F24E7
:1053F0001021827922400A4382719A792240114316
:105400009971FFF725FAFBF7D1F8F8BD6346013231
:105410001A40DAE73C250020FA240020F924002075
:10542000FC240020F0B504008BB00100062206A881
:1054300005F000FB2378854D059363786679049326
:105440006388277901932B790393002B18D1002FC0
:1054500014D0002E00D1F5E02000FCF7BBFC0028A2
:1054600000D1EFE008222100280005F0E3FA012F27
:1054700002D12888FCF79EFCFFF796FF012542E049
:105480006B79019A02936B88D31A029A9BB2002A15
:1054900000D1B2E0C72B00D983E0002FEED0AB796A
:1054A000298822880F2B51D891420DD1002E47D147
:1054B0000F221340013213432800AB71FFF7C8F9E4
:1054C000AB79A37100251EE0002E39D1320004997A
:1054D000059803F0F5FE32000499059803F0F0FEFC
:1054E000051EEFD10698FCF765FCC3B200040F213E
:1054F000020F032A0AD8012A11D9000E014213D043
:10550000A2790F2A10D828000BB0F0BD06320A404D
:10551000012A0ED92000FFF79BF9029DF3E7000E48
:10552000014201D0002BEED02033DBB2072BEAD9A9
:10553000F0E7EF2BE7D90F33DBB2022BE3D9E9E732
:105540000123424A91790B439371BBE791420BD1FE
:10555000002E09D1A3712000FFF77AF9082221005B
:10556000280005F067FA89E72000FCF733FC0028E3
:1055700068D0002E66D0354A93791F2B0BD912883C
:1055800008A80280019A83714280039A0271002266
:105590004271FFF75DF9082221002C4805F04AFA14
:1055A0006AE7AB790F2B08D82800FFF751F90822DA
:1055B0000021280006F019F984E7002F00D15DE7EB
:1055C0002988228891420BD1002E09D12000A37195
:1055D000FFF73EF908223100280006F006F94DE7F2
:1055E0002000FCF7F7FB00282CD0002E2AD0AB7946
:1055F0001F2BD0D92A8808A8C3E7C72BD7D8002FDC
:1056000000D13BE7002E1DD02A8823889A4210D172
:10561000AB79DA07A2D40F2BA0D90F21A3718B434A
:10562000F02B98D0A3791A09013212010B401343D1
:1056300090E72000FCF7CEFB0028ACD10123AA792B
:105640001343AB712000FFF703F917E73C25002057
:10565000F0B50B0A89B0DBB200900191002B02D0AB
:1056600000222B4B1A700E2300226B441A80009BE1
:1056700002AC02936B469B88A380DBB2934203D0BB
:1056800001212000FCF77CFB04AF21000822380038
:1056900005F0D0F93800FFF7C5FE1E4D061E1E4C62
:1056A00018D10822390006A805F0C4F939792B78F9
:1056B000227800290ED007215F1C0F40974210D09E
:1056C0001648DB000822C01806A905F0B3F92F70B0
:1056D000FAF76CFF072620782B7883420BD109B0AC
:1056E000F0BDFEF77DFC082231000D482E702670BB
:1056F00006F07BF8EEE7094BC000C018FFF792FEFA
:105700000028ECD02378013333402370E3E7C04610
:10571000F8240020F9240020FA240020FC24002092
:105720003C25002073B5FDF791FA094D84B22B8812
:10573000A3420CD06B4600261E80FDF787FA6B460D
:105740009E80588000980199FFF782FF2C8073BDDE
:10575000902400207FB56B46050002AC187000292C
:105760001CD0FD265E70FDF771FA6B4658808123D0
:105770006A465B00938000980199FFF769FF2570E6
:105780006670FDF763FA022380B223710023608004
:10579000637102986168FFF75BFF7FBDFC265E7056
:1057A000FDF754FA6B46588004236A46FF33938012
:1057B00000980199FFF74CFF25706670FDF746FAD7
:1057C000032380B2E1E700000223F0B587B0019324
:1057D000254B042100930320244A05ABFDF786FAEC
:1057E0000290002824D00026330019E00C21204A22
:1057F000204F157802AA75195218EDB2925D795DA5
:10580000521A54B20394039A002A14DC221C002C6E
:1058100000DA0022A41A64B2002C19D10136F6B2C3
:10582000154A1278B242E1D8002B01D0FDF74CFAAC
:10583000029807B0F0BD039B0021013B5BB20393CC
:105840007B5D280001337B55FFF784FF029BDAE77D
:105850007B5D0121013B280001347B5564B2FFF7D9
:1058600079FF029BD8E7C0466A2400204C24002020
:1058700049240020452400204424002070B50C0059
:105880000500FEF71DFE002C06D028602100856172
:105890000320FEF7D1FD70BD01204042FBE7000070
:1058A000F8B504000E001700FCF722FF0E4D2B7810
:1058B000042B02D0FCF727FFF8BD0123A3402A895F
:1058C00013420AD0A31C9B00EB185B680749586978
:1058D0000C30FFF7D3FF0130ECD03B003200210049
:1058E0002800FCF70FF9E5E7CC2200201027000084
:1058F00010B50400010008220120FFF7D1FF0822A3
:105900002100024805F096F810BDC046A70B002004
:1059100010B5010020220420FFF7C2FF10BD0000D7
:1059200010B50400010006220420FFF7B9FF06228B
:105930002100024805F07EF810BDC046A10B0020F2
:1059400010B5010003220420FFF7AAFF10BD0300D9
:10595000006810B5002804D000221A608161FEF7AB
:105960004DFC10BD030010B51B68984203D09C6825
:105970008A689442F8D25A680B604A601160596094
:1059800010BD10B5EFF30983203383F30988FCF7CA
:10599000BAFE10BD10B50F3018D0FCF7A9FEEFF31A
:1059A0000983203B83F3098880225204DA61D022E4
:1059B00012061168074A8900521852681168D268A5
:1059C00089689268914202D9034A9A6110BD034ADC
:1059D000FBE7C046300F0020FF020010020300105A
:1059E000D0230C2270461B0610B51A650B3A196DB0
:1059F000114203D140BFFFF7CDFF10BD996DF6E70F
:105A0000D0230C22704601211B0610B51A651A6DB1
:105A10000A4203D140BFFFF7BDFF10BD9A6D0232AD
:105A2000F5D172B61A68034B92009B185B68024A64
:105A30009A65FEE7300F0020A5BB0010BFF35F8F13
:105A4000D023BE221B0652009B507047F7B50400BE
:105A5000FCF74EFE2378012B45D02000FCF75CFEBE
:105A600000282AD0234F244ABB6A64260193636826
:105A7000E5691B68934204D9204A5A3E934200D8F4
:105A80000F3600232B63EA6E01331343EB660223C8
:105A9000EA6E1343EB66FCF736FE40226B6B134253
:105AA00008D1FCF725FEBB6A019A9B1AB342F2D3D8
:105AB000FCF729FEFCF71CFE6B6D114B9C4212D1CA
:105AC000802210495204CA67C021FF200E4B4900B2
:105AD0005A509931FF315A5882435A5010230B4A79
